{
  "contractName": "AfroToken",
  "abi": [
    {
      "constant": true,
      "inputs": [],
      "name": "totalSupply",
      "outputs": [
        {
          "name": "",
          "type": "uint256"
        }
      ],
      "payable": false,
      "stateMutability": "view",
      "type": "function",
      "signature": "0x18160ddd"
    },
    {
      "constant": true,
      "inputs": [
        {
          "name": "",
          "type": "address"
        }
      ],
      "name": "balanceOf",
      "outputs": [
        {
          "name": "",
          "type": "uint256"
        }
      ],
      "payable": false,
      "stateMutability": "view",
      "type": "function",
      "signature": "0x70a08231"
    },
    {
      "inputs": [
        {
          "name": "_initialSupply",
          "type": "uint256"
        }
      ],
      "payable": false,
      "stateMutability": "nonpayable",
      "type": "constructor",
      "signature": "constructor"
    }
  ],
  "bytecode": "0x608060405234801561001057600080fd5b506040516020806101448339810180604052602081101561003057600080fd5b50513360009081526001602052604081208290555560f1806100536000396000f3fe60806040526004361060485763ffffffff7c010000000000000000000000000000000000000000000000000000000060003504166318160ddd8114604d57806370a08231146071575b600080fd5b348015605857600080fd5b50605f60ad565b60408051918252519081900360200190f35b348015607c57600080fd5b50605f60048036036020811015609157600080fd5b503573ffffffffffffffffffffffffffffffffffffffff1660b3565b60005481565b6001602052600090815260409020548156fea165627a7a72305820f196396c79f2910362f18b8095fc7da28690ebad1c36653550a23733ac8104870029",
  "source": "pragma solidity ^0.5.0;\r\n\r\ncontract AfroToken{\r\n    uint256 public totalSupply;\r\n    mapping( address => uint256) public balanceOf;\r\n\r\n    constructor(uint256 _initialSupply) public{\r\n        balanceOf[msg.sender] = _initialSupply;\r\n        totalSupply = _initialSupply;\r\n        // allocate the initial supply\r\n    } \r\n}",
  "sourcePath": "D:/DevLearning/createMyOwn Token/contracts/AfroToken.sol",
  "compiler": {
    "name": "solc",
    "version": "0.5.0+commit.1d4f565a.Emscripten.clang"
  },
  "schemaVersion": "3.0.1",
  "updatedAt": "2022-05-08T10:11:02.479Z",
  "devdoc": {
    "methods": {}
  },
  "userdoc": {
    "methods": {}
  }
}